:100000000C942A000C9434000C9434000C943400AA
:100010000C9434000C9434000C9434000C94340090
:100020000C9434000C9434000C9434000C94340080
:100030000C9434000C9434000C9434000C94340070
:100040000C9434000C9434000C9434000C94340060
:100050000C94340011241FBECFE5D8E0DEBFCDBF25
:100060000E9436000C944F000C9400008FEF87BB69
:1000700085E588BB2FEF83ED90E3215080409040D1
:10008000E1F700C000008AEA88BB2FEF83ED90E320
:10009000215080409040E1F700C00000E9CFF89483
:0200A000FFCF90
:00000001FF
